:020000040800F2
:10000000000002202D5700081322000819220008C2
:100010001F220008252200082B22000800000000F3
:100020000000000000000000000000006512000851
:1000300031220008000000002112000851110008C0
:100040007D5700087D5700087D5700087D57000840
:100050007D5700087D5700087D5700087D57000830
:100060007D5700087D5700087D5700087D57000820
:100070007D5700087D5700087D5700087D57000810
:100080007D5700087D5700087D5700087D57000800
:10009000412200087D5700087D5700087D57000861
:1000A0007D5700087D5700087D5700087D570008E0
:1000B0007D5700087D5700087D5700087D570008D0
:1000C0007D5700087D5700087D5700087D570008C0
:1000D0007D5700087D5700087D5700087D570008B0
:1000E0007D5700087D5700087D5700087D570008A0
:1000F0007D5700087D5700087D5700087D57000890
:100100007D5700087D570008552200087D570008DC
:100110007D5700087D5700087D5700087D5700086F
:100120007D5700087D5700087D5700087D5700085F
:100130007D5700087D5700087D5700087D5700084F
:10014000692200087D5700087D5700087D57000888
:100150007D5700087D5700087D5700087D5700082F
:100160007D5700087D5700087D5700087D5700081F
:100170007D5700087D5700087D57000800000000EB
:080180007D5700087D570008BF
:1001880010B5054C237833B9044B13B10448AFF3C9
:1001980000800123237010BDB00000200000000083
:1001A800D857000808B5034B1BB103490348AFF300
:1001B800008008BD00000000B4000020D8570008E7
:1001C80081F0004102E000BF83F0004330B54FEA00
:1001D80041044FEA430594EA050F08BF90EA020F6D
:1001E8001FBF54EA000C55EA020C7FEA645C7FEA00
:1001F800655C00F0E2804FEA5454D4EB5555B8BF23
:100208006D420CDD2C4480EA020281EA030382EA93
:10021800000083EA010180EA020281EA0303362D25
:1002280088BF30BD11F0004F4FEA01314FF4801CF8
:100238004CEA113102D0404261EB410113F0004F0A
:100248004FEA03334CEA133302D0524263EB4303C1
:1002580094EA050F00F0A780A4F10104D5F1200E5F
:100268000DDB02FA0EFC22FA05F2801841F10001BA
:1002780003FA0EF2801843FA05F359410EE0A5F18E
:1002880020050EF1200E012A03FA0EFC28BF4CF0BF
:10029800020C43FA05F3C01851EBE37101F0004575
:1002A80007D54FF0000EDCF1000C7EEB00006EEB82
:1002B8000101B1F5801F1BD3B1F5001F0CD349080C
:1002C8005FEA30004FEA3C0C04F101044FEA445263
:1002D80012F5800F80F09A80BCF1004F08BF5FEAEA
:1002E800500C50F1000041EB045141EA050130BDCA
:1002F8005FEA4C0C404141EB0101013C28BFB1F5DC
:10030800801FE9D291F0000F04BF01460020B1FA26
:1003180081F308BF2033A3F10B03B3F120020CDAF9
:100328000C3208DD02F1140CC2F10C0201FA0CF0D7
:1003380021FA02F10CE002F11402D8BFC2F1200C3C
:1003480001FA02F120FA0CFCDCBF41EA0C019040F2
:10035800E41AA2BF01EB0451294330BD6FEA04043B
:100368001F3C1CDA0C340EDC04F11404C4F1200226
:1003780020FA04F001FA02F340EA030021FA04F338
:1003880045EA030130BDC4F10C04C4F1200220FA8F
:1003980002F001FA04F340EA0300294630BD21FACD
:1003A80004F0294630BD94F0000F83F4801306BF93
:1003B80081F480110134013D4EE77FEA645C18BF87
:1003C8007FEA655C29D094EA050F08BF90EA020F1E
:1003D80005D054EA000C04BF1946104630BD91EA16
:1003E800030F1EBF0021002030BD5FEA545C05D119
:1003F8004000494128BF41F0004130BD14F5800458
:100408003CBF01F5801130BD01F0004545F0FE41CB
:1004180041F470014FF0000030BD7FEA645C1ABF00
:10042800194610467FEA655C1CBF0B46024650EA37
:10043800013406BF52EA033591EA030F41F4002163
:1004480030BD00BF90F0000F04BF0021704730B5E9
:100458004FF4806404F132044FF000054FF00001BE
:1004680050E700BF90F0000F04BF0021704730B57F
:100478004FF4806404F1320410F0004548BF404254
:100488004FF000013EE700BF42004FEAE2014FEAA9
:1004980031014FEA02701FBF12F07F4393F07F4F84
:1004A80081F06051704732F07F4208BF704793F087
:1004B8007F4F04BF41F40021704730B54FF460749A
:1004C80001F0004521F000411CE700BF50EA01029D
:1004D80008BF704730B54FF000050AE050EA010246
:1004E80008BF704730B511F0004502D5404261EBB6
:1004F80041014FF4806404F132045FEA915C3FF4F7
:10050800D8AE4FF003025FEADC0C18BF03325FEA93
:10051800DC0C18BF033202EBDC02C2F1200300FA44
:1005280003FC20FA02F001FA03FE40EA0E0021FA69
:1005380002F11444BDE600BF4FF0FF3C06E000BFE7
:100548004FF0010C02E000BF4FF0010C4DF804CD54
:100558004FEA410C7FEA6C5C4FEA430C18BF7FEA14
:100568006C5C1BD001B050EA410C0CBF52EA430C42
:1005780091EA030F02BF90EA020F0020704710F1C2
:10058800000F91EA030F58BF994208BF90422CBF51
:10059800D8176FEAE37040F0010070474FEA410C4A
:1005A8007FEA6C5C02D150EA013C07D14FEA430C68
:1005B8007FEA6C5CD6D152EA033CD3D05DF8040BD9
:1005C800704700BF8446104662468C46194663460B
:1005D80000E000BF01B5FFF7B7FF002848BF10F1E2
:1005E800000F01BD4DF808EDFFF7F4FF0CBF012027
:1005F80000205DF808FB00BF4DF808EDFFF7EAFFA3
:1006080034BF012000205DF808FB00BF4DF808ED5D
:10061800FFF7E0FF94BF012000205DF808FB00BF52
:100628004DF808EDFFF7CEFF94BF012000205DF8DC
:1006380008FB00BF4DF808EDFFF7C4FF34BF0120E9
:1006480000205DF808FB00BF4FEA410212F50012D6
:1006580015D211D56FF47873B3EB625212D94FEA01
:10066800C12343F0004343EA505311F0004F23FAEB
:1006780002F018BF404270474FF00000704750EA40
:10068800013005D111F0004008BF6FF000407047FD
:100698004FF00000704700BF53B94AB9002908BF9E
:1006A80000281CBF4FF0FF314FF0FF3000F06EB94B
:1006B800ADF1080C6DE904CE00F006F8DDF804E0B1
:1006C800DDE9022304B070472DE9F047089D044690
:1006D8008C46002B40F083808A42174647D9B2FAED
:1006E80082F242B1C2F1200024FA00F09140974012
:1006F80040EA010C94404FEA1748230CBCFBF8F67B
:100708001FFA87FE08FB16C143EA014306FB0EF1F8
:10071800994209D9FB1806F1FF3080F019819942F6
:1007280040F21681023E3B445B1AA4B2B3FBF8F0D8
:1007380008FB103344EA034400FB0EFEA64509D922
:100748003C1900F1FF3380F00581A64540F2028193
:1007580002383C4440EA0640A4EB0E0400261DB1D2
:10076800D4400023C5E900433146BDE8F08702B90B
:10077800FFDEB2FA82F2002A50D1CB1B4FEA174EA5
:100788001FFA87F80126B3FBFEFC210C0EFB1C3375
:1007980041EA034108FB0CF38B4207D979180CF1A5
:1007A800FF3002D28B4200F2E9808446C91AA3B214
:1007B800B1FBFEF00EFB101143EA014408FB00F800
:1007C800A04507D93C1900F1FF3302D2A04500F239
:1007D800D9801846A4EB080440EA0C40BFE78B42D6
:1007E80009D9002D00F0B1800026C5E90001304686
:1007F8003146BDE8F087B3FA83F6002E4AD18B4222
:1008080002D3824200F2B880841A61EB030101200E
:100818008C46002DA8D0C5E9004CA5E7C2F12003FD
:1008280020FA03F6974001FA02F04FEA174ED94032
:100838003043030CB1FBFEF61FFA87F80EFB1611C6
:1008480043EA014306FB08F1994204FA02F409D984
:10085800FB1806F1FF3C80F08D80994240F28A80B7
:10086800023E3B445B1A81B2B3FBFEF00EFB103331
:1008780041EA034100FB08F38B4207D9791800F1DC
:10088800FF3C73D28B4271D902383944CB1A40EA03
:10089800064678E7C6F1200C03FA06F422FA0CF3B0
:1008A8001C4320FA0CF701FA06F34FEA144E21FA1A
:1008B8000CF11F433B0CB1FBFEF91FFA84F80EFB49
:1008C800191143EA014109FB08FA8A4502FA06F2BE
:1008D80000FA06F308D9611809F1FF3048D28A45B1
:1008E80046D9A9F102092144A1EB0A01BFB2B1FB23
:1008F800FEF00EFB101147EA014700FB08F8B84567
:1009080007D9E71900F1FF312ED2B8452CD90238A2
:10091800274440EA0940A7EB0807A0FB02894F4596
:10092800C64649461AD317D05DB1B3EB0E0267EB42
:10093800010707FA0CFCF2404CEA0202F740C5E94D
:10094800002700263146BDE8F0872E4628460BE7EB
:100958000646E9E61846FDE64345E5D2B8EB020E41
:1009680069EB04010138DFE70846D2E760468DE706
:100978008146B9E7664675E730464AE7ACF1020CAE
:10098800394413E702383C4424E700BF704700BFEE
:1009980080B582B000AF4C4B1B785A1CD1B24A4A82
:1009A8001170002B09D0494B01221A60464B1B7865
:1009B800013BDAB2444B1A7083E03B46184600F01C
:1009C8002FF962B600BF00F07FF972B600BF3E4B48
:1009D8001B78013BDAB23C4B1A7001237B6024E0A0
:1009E8003A467B6813441B78002B1BD0384A7B6837
:1009F80013441B785A1CD0B235497A680A44014618
:100A08001170002B0ED0314B01221A60304A7B68DE
:100A180013441B78013BD9B22D4A7B6813440A461C
:100A28001A7005E07B6801337B607B68022BD7DD99
:100A380001237B6040E0244A7B6813441B78002B29
:100A48003ED1234A7B6813441B78002B31D01E4AC1
:100A58007B6813441B780133D9B21B4A7B68134463
:100A68000A461A7062B600BF7B68012B03D07B6808
:100A7800022B03D005E000F0FFF902E000F04AFA8B
:100A880000BF72B600BF124A7B6813441B78013B53
:100A9800D9B20F4A7B6813440A461A700A4A7B681F
:100AA80013441B78013BD9B2074A7B6813440A46B2
:100AB8001A707B6801337B607B68022BBBDD00E02A
:100AC80000BF0837BD4680BDD0000020CC00002004
:100AD800D400002080B584B000AF78603960354B11
:100AE800FB60354BBB60354B00221A70344B00223B
:100AF8001A7001DF02F0B4FC00F030FF00F0ACFA2D
:100B080001F0F0FA01F060F801F010FA01F08AFA49
:100B180000F082FF00F0F6FF01F08CF801F0C0F859
:100B280001F016F901F046F901F096F901F04EFAD4
:100B380001F0A6FA234B1B6800221A6000F038FA6D
:100B480072B600BF97ED030A00F00EFB1D4B1B6841
:100B58001B68002B0CBF01230023DBB21A46184B7D
:100B68001A7062B600BF62B600BF15E0154B1B686D
:100B78001B68002B14BF01230023DBB21A460F4B5E
:100B88001A700E4B1B78DBB2002B05D00E4B1B687E
:100B98000D4A23F001031360094B1B78DBB2002BCD
:100BA800E4D100F03BFA72B600BF002318461037B4
:100BB800BD4680BDCDCCCC3D00002843E9000020D7
:100BC800E8000020F057000810E000E080B483B08F
:100BD80000AF78607B681B6918460C37BD465DF826
:100BE800047B704780B483B000AF786039607B685D
:100BF8003A689A6100BF0C37BD465DF8047B7047C0
:100C080080B483B000AF786039603B681A047B68B1
:100C18009A6100BF0C37BD465DF8047B7047000041
:100C280080B483B000AF78600C4B5B79002B0CBFAD
:100C380001230023DAB27B6801331A70074B9B79D2
:100C4800002B0CBF01230023DAB27B6802331A7031
:100C580000BF0C37BD465DF8047B7047D800002004
:100C680080B400AF174B5B79002B0CBF0123002326
:100C7800DAB2144BDA71134B9B79002B0CBF0123AA
:100C88000023DAB20F4B1A720E4B5A790132D2B2E4
:100C98005A710C4B5B79042B02D90A4B00225A710A
:100CA800084B9A790132D2B29A71064B9B79092B7B
:100CB80002D9044B00229A7100BFBD465DF8047B3F
:100CC800704700BFD8000020B0B586B000AFFFF76E
:100CD800C7FF624BBB60B868FFF778FF78607B6836
:100CE80003F48063002B14BF01230023DBB2FB70E5
:100CF800FB78002B21D05A4B1B78012B1DD0594B68
:100D08001B7F594ADB001344D3E900235749C1E943
:100D18000423544B1A7F544B93F89A301344DAB295
:100D2800504B1A774F4B1A7F4F4B1B7E9A4204D970
:100D38004D4B93F898204B4B1A77494AFB78137020
:100D48004B4BDB79002B05D0464BD3E900234749B1
:100D5800C1E90023464B1B7A002B05D0414BD3E950
:100D680002234249C1E902233E4B1B691846FFF79B
:100D780079FB3D4BD3E91223FFF73EFC0346002BDA
:100D880007D0384B1B69002B03DB374BD3E90E2305
:100D980003E04FF000024FF00003C7E90423314B92
:100DA8001B691846FFF75EFB04460D462E4BD3E938
:100DB80010014FF000022F4BFFF706FA02460B46D0
:100DC80020462946FFF72CFC0346002B03D0254B71
:100DD80000221A6104E0234B1B690133214A136185
:100DE800224BD3E9042310461946FFF72DFC03468E
:100DF800002B0DD0012B05D11C4BD3E90023C7E9EB
:100E0800042306E0194BD3E90223C7E9042300E0D1
:100E180000BF124BBB604FF000024FF00003D7E950
:100E28000401FFF7DFFB0346002B03D14FF4005307
:100E3800FB6001E00023FB60FB681946B868FFF718
:100E4800D1FEFB68DB4303F400531946B868FFF78B
:100E5800D7FE00BF1837BD46B0BD00BF0010024026
:100E680028010020F00000200000002010010020D0
:100E7800D80000200000F03FB0B582B000AF224B90
:100E88005B691846FFF7EEFA204BD3E91A23FFF700
:100E9800B3FB0346002B07D01B4B5B69002B03DB1E
:100EA8001A4BD3E9162303E04FF000024FF000037A
:100EB800C7E90023144B5B691846FFF7D3FA0446C9
:100EC8000D46124BD3E918014FF00002104BFFF703
:100ED8007BF902460B4620462946FFF7A1FB03464D
:100EE800002B03D0084B00225A6104E0064B5B69D3
:100EF8000133054A53610449D7E90023C1E90023B6
:100F080000BF0837BD46B0BDF0000020000000203B
:100F18000000F03FB0B582B000AF224B9B69184685
:100F2800FFF7A0FA204BD3E92223FFF765FB03461E
:100F3800002B07D01B4B9B69002B03DB1A4BD3E913
:100F48001E2303E04FF000024FF00003C7E900231F
:100F5800144B9B691846FFF785FA04460D46124B59
:100F6800D3E920014FF00002104BFFF72DF902469C
:100F78000B4620462946FFF753FB0346002B03D0B8
:100F8800084B00229A6104E0064B9B690133054A2D
:100F980093610449D7E90023C1E9022300BF083758
:100FA800BD46B0BDF0000020000000200000F03F6A
:100FB80080B400AF154BD3E90A231549C1E90023D2
:100FC800124BD3E90C231249C1E90223114B012228
:100FD8001A700E4BD3E90A230F49C1E900230B4BC2
:100FE800D3E90C230C49C1E90223084B93F8992053
:100FF800094B1A77054BD3E908230549C1E90423AE
:1010080000BFBD465DF8047B704700BF00000020AC
:101018001001002028010020F000002080B400AF5B
:1010280000BFBD465DF8047B704780B584B000AF53
:10103800786002F04BFAF8607B68BB6000BF02F092
:1010480045FA0246FB68D31ABA689A42F7D800BF35
:1010580000BF1037BD4680BD80B400AF00BFBD469D
:101068005DF8047B704700BF80B483B000AF0346CF
:101078003960FB7197F90730002B0ADB3B68DAB25D
:101088000C4997F907301201D2B20B4483F80023B8
:101098000AE03B68DAB20849FB7903F00F03043B26
:1010A8001201D2B20B441A7600BF0C37BD465DF868
:1010B800047B704700E100E000ED00E080B582B0FD
:1010C80000AF78607B68013BB3F1807F01D30123D7
:1010D8000FE00A4A7B68013B53600F214FF0FF3055
:1010E800FFF7C2FF054B00229A60044B07221A60E3
:1010F800002318460837BD4680BD00BF10E000E059
:1011080080B500AFBFF34F8F00BFBFF36F8F00BF35
:101118000B4B1A680B4B1B689A4202D3084B0022F0
:101128001A60074B1B685A1C05490A60002B05D139
:1011380072B600BFFFF72CFC62B600BF00BF80BDCF
:10114800300100202C01002080B400AF054B5B6803
:10115800044A43F08053536000BFBD465DF8047BEA
:10116800704700BF00ED00E080B584B000AF87EDA8
:10117800010A234B1B6807EE903AB8EE677AD7ED61
:10118800017A67EE277AFCEEE77A17EE903AFB6071
:10119800FB68B3F1807F18D3FB6807EE903AB8EE8E
:1011A800677ADFED186AC7EE267AFCEEE77A17EE63
:1011B800903A0133144A1360134B1B68FA68B2FB68
:1011C800F3F31846FFF77AFF05E00F4B00221A6089
:1011D800F868FFF773FF0D4B00221A600C4A0D4B9D
:1011E8001A600F216FF00400FFF73EFF0F216FF028
:1011F8000100FFF739FF00BF1037BD4680BD00BFB3
:10120800A8000020FFFF7F4B2C01002030010020A8
:101218000911000834010020EFF3008001B5EFF355
:10122800118003B41EF0100F08BFB0EE400A0A4840
:10123800006803B488B004A006904FF0807007904F
:101248006FF006008646704703BC8047BFF36F8F78
:1012580000DFFEE700BF0000340100201EF0100F81
:1012680008BFB0EE400A1EF0040F0CBFEFF3088071
:10127800EFF30980816911F8020C10B101280DD033
:101288000BE01EF0100F0CBF1AB008B003BC80F3BF
:10129800118803BC80F300880847FEE74EF6145116
:1012A800CEF200010A6842F001020A607047F4E7D2
:1012B80000BF00BF80B489B000AFF860B9607A6041
:1012C800FB682C331946BB6803F440734FF4407233
:1012D8007A617A6992FAA2F23A613A69BA61BA69AC
:1012E800002A01D1202203E0BA69B2FA82F2D2B20E
:1012F800D3409B000B44FB61FB691A68BB6803F091
:101308001F031F2101FA03F3DB431A407B6803F034
:101318001F01BB6803F01F0301FA03F31A43FB69BB
:101328001A6000BF2437BD465DF8047B704780B45F
:1013380083B000AF786039607B689B6823F4806273
:101348003B681A437B689A6000BF0C37BD465DF85E
:10135800047B704780B48FB000AFF860B9607A60E2
:10136800FB680C331946BB6803F000734FF000723A
:101378007A617A6992FAA2F23A613A69BA61BA690B
:10138800002A01D1202203E0BA69B2FA82F2D2B26D
:10139800D3409B000B447B637B6B1A68BB6803F0EC
:1013A800F8734FF0F8713962396A91FAA1F1F9616D
:1013B800F9697962796A002901D1202103E0796A03
:1013C800B1FA81F1C9B2CB40072101FA03F3DB433B
:1013D8001A40BB6803F0F8734FF0F871F962F96AC4
:1013E80091FAA1F1B962B96A3963396B002901D15F
:1013F800202103E0396BB1FA81F1C9B2CB40796899
:1014080001FA03F31A437B6B1A6000BF3C37BD46F1
:101418005DF8047B704780B483B000AF78607B6868
:101428001B6823F080027B681A6000BF0C37BD463A
:101438005DF8047B704780B483B000AF78607B6848
:101448001B6823F040027B681A6000BF0C37BD465A
:101458005DF8047B704780B483B000AF7860396072
:101468007B68DB6823F0FE023B681A437B68DA601E
:1014780000BF0C37BD465DF8047B704780B483B06D
:1014880000AF78607B68DB6823F001027B68DA6074
:1014980000BF0C37BD465DF8047B704780B400AFD1
:1014A800054B1B68044A43F48033136000BFBD46F4
:1014B8005DF8047B704700BF0038024080B400AF7D
:1014C800074B1B6803F40033B3F5003F0CBF01233F
:1014D8000023DBB21846BD465DF8047B704700BFA9
:1014E8000038024080B400AF054B5B6F044A43F0FC
:1014F8000103536700BFBD465DF8047B704700BF1A
:101508000038024080B400AF064B5B6F03F0020363
:10151800022B0CBF01230023DBB21846BD465DF841
:10152800047B70470038024080B483B000AF786015
:10153800064B9B6823F0030204497B6813438B60C6
:1015480000BF0C37BD465DF8047B70470038024089
:1015580080B400AF044B9B6803F00C031846BD46EB
:101568005DF8047B704700BF0038024080B483B048
:1015780000AF7860064B9B6823F0F00204497B6853
:1015880013438B6000BF0C37BD465DF8047B704782
:101598000038024080B483B000AF7860064B9B6887
:1015A80023F4E05204497B6813438B6000BF0C3777
:1015B800BD465DF8047B70470038024080B483B0B4
:1015C80000AF7860064B9B6823F4604204497B684F
:1015D80013438B6000BF0C37BD465DF8047B704732
:1015E8000038024080B483B000AF7860064B1B6FB0
:1015F80023F4407204497B6813430B6700BF0C3720
:10160800BD465DF8047B70470038024080B400AFE7
:10161800044B1B6F03F440731846BD465DF8047B0A
:10162800704700BF0038024080B400AF054B1B6F05
:10163800044A43F40043136700BFBD465DF8047BCA
:10164800704700BF0038024080B400AF054B1B6FE5
:10165800044A43F48033136700BFBD465DF8047B3A
:10166800704700BF0038024080B400AF054B1B6FC5
:10167800044A23F48033136700BFBD465DF8047B3A
:10168800704700BF0038024080B400AF054B1B68AC
:10169800044A43F08073136000BFBD465DF8047BC5
:1016A800704700BF0038024080B400AF074B1B688A
:1016B80003F00073B3F1007F0CBF01230023DBB2FA
:1016C8001846BD465DF8047B704700BF00380240ED
:1016D80080B485B000AFF860B9607A603B600D4BAC
:1016E8005A680D4B1340F968BA6811437A68920139
:1016F8000A43084913434B60064B5B6823F44032A6
:1017080004493B6813434B6000BF1437BD465DF87E
:10171800047B7047003802400080BFFF80B485B06A
:1017280000AFF860B9607A603B600A4B5A680A4BB0
:101738001340F968BA6811437A68920111433A680C
:101748000A43044913434B6000BF1437BD465DF894
:10175800047B7047003802400080BFF080B485B039
:1017680000AF7860084B1A6B07497B6813430B631B
:10177800054B1A6B7B681340FB60FB6800BF14378E
:10178800BD465DF8047B70470038024080B485B0E0
:1017980000AF7860084B1A6C07497B6813430B64E9
:1017A800054B1A6C7B681340FB60FB6800BF14375D
:1017B800BD465DF8047B70470038024080B485B0B0
:1017C80000AF7860084B5A6C07497B6813434B6439
:1017D800054B5A6C7B681340FB60FB6800BF1437ED
:1017E800BD465DF8047B70470038024080B483B082
:1017F80000AF7860064B1B6823F0070204497B683A
:1018080013430B6000BF0C37BD465DF8047B70477F
:10181800003C024080B400AF044B1B6803F0070390
:101828001846BD465DF8047B704700BF003C024087
:1018380080B483B000AF7860064B1B6823F4804205
:1018480004497B6813430B6000BF0C37BD465DF845
:10185800047B70470070004080B400AF054B1B68E4
:10186800044A43F48073136000BFBD465DF8047BEF
:10187800704700BF0070004080B483B000AF78604C
:1018880039607B681B6923F4FE023B681B041A431A
:101898007B681A6100BF0C37BD465DF8047B704752
:1018A80080B483B000AF786039607B681B6923F42B
:1018B800FF4323F07F033A681A437B681A6100BF2D
:1018C8000C37BD465DF8047B704780B483B000AF29
:1018D800786039607B685B6823F010023B681A43C4
:1018E8007B685A6000BF0C37BD465DF8047B7047C3
:1018F80080B483B000AF78607B68DB6843F4005243
:101908007B68DA6000BF0C37BD465DF8047B704722
:1019180080B483B000AF78607B681B6923F4904281
:101928007B681A617B685B6923F02A027B685A61CD
:1019380000BF0C37BD465DF8047B704780B483B0A8
:1019480000AF786039603B681A047B689A6100BF11
:101958000C37BD465DF8047B7047000080B500AFCA
:101968000520FFF743FF00BFFFF754FF0346052B91
:10197800FAD14FF48040FFF75BFFFFF78FFD00BF00
:10198800FFF79CFD0346012BFAD1FFF7ABFD00BF23
:10199800FFF7B8FD0346012BFAD1FFF75DFF0023DF
:1019A8004FF4A87219214FF48000FFF791FE4FF011
:1019B800E0634FF4A87219214FF48000FFF7AEFEE0
:1019C800FFF762FE00BFFFF76FFE0346012BFAD157
:1019D8000020FFF7CBFD4FF4A050FFF7DBFD4FF4DD
:1019E8000040FFF7EBFD0220FFF79EFD00BFFFF769
:1019F800AFFD0346082BFAD1064801F03DFA0F2047
:101A080000F0DCFD0346002B01D000F0F9FB00BF1D
:101A180080BD00BF007A030A80B592B000AF07F11D
:101A28003C0300221A605A609A6007F128030022DA
:101A38001A605A609A60DA601A6107F11803002286
:101A48001A605A609A60DA603B4600221A605A604F
:101A58009A60DA601A615A614FF48070FFF7AEFE3F
:101A68000120FFF77BFE08233B6003237B600023F4
:101A78003B613B4619461F4800F067FF0023FB63A4
:101A880000233B6400237B6407F13C0319461A4892
:101A980001F04AF80023BB620023FB6200233B638A
:101AA80000237B630023BB6307F128031946124810
:101AB80001F066F84FF480610F48FFF738FC4FF4E7
:101AC8008033BB610023FB6107F1180319460B48FB
:101AD80000F0E2FF0A4A4FF400710748FFF7EAFBFB
:101AE800002207490448FFF735FC00BF4837BD46C8
:101AF80080BD00BF000002400020014000230140DB
:101B08000300900280B58EB000AF07F12C030022CD
:101B18001A605A609A6007F1180300221A605A6026
:101B28009A60DA601A613B4600221A605A609A602D
:101B3800DA601A615A614FF40070FFF73FFE022025
:101B4800FFF70CFE01233B6003237B6000233B610E
:101B58003B461946194800F0F8FE0023FB620023B3
:101B68003B6300237B6307F12C031946144800F0FC
:101B7800DBFF0023BB610023FB6100233B620023E2
:101B88007B620023BB6207F1180319460C4800F07A
:101B9800F7FF4FF480610A48FFF7C9FB094A4FF481
:101BA80000710748FFF786FB002206490448FFF743
:101BB800D1FB00BF3837BD4680BD00BF00040240DE
:101BC800002101400800800380B500AF174B184A78
:101BD8001A60164B06225A60144B00229A60134B67
:101BE8000022DA60114B4FF420221A610F4B4FF498
:101BF80080125A610D4B00221A760C4B01225A763C
:101C08000A4B00229A76094B0122DA76074B00220A
:101C18001A77064B00225A77044801F063FC034602
:101C2800002B01D000F0ECFA00BF80BDB409002001
:101C38000064004080B500AF174B184A1A60164B75
:101C480006225A60144B00229A60134B0022DA6075
:101C5800114B4FF420221A610F4B4FF480125A6136
:101C68000D4B00221A760C4B01225A760A4B0122A0
:101C78009A76094B0122DA76074B00221A77064B2F
:101C880000225A77044801F02DFC0346002B01D0AE
:101C980000F0B6FA00BF80BD480900200068004087
:101CA80080B58CB000AF07F1180300221A605A60A3
:101CB8009A60DA601A615A613B4600221A605A60DB
:101CC8009A60DA601A615A610220FFF747FD4FF403
:101CD80040733B6002237B600323BB600123FB60EE
:101CE80000233B6104237B613B461946154800F0FD
:101CF8002CFE4FF40010FFF749FD1348FFF7BEFB19
:101D08001148FFF798FB1048FFF785FB0023BB61DC
:101D18000E4BFB6100233B6200237B624FF4806320
:101D2800BB624FF48043FB6207F11803194606486B
:101D380002F002F800210448FFF78DFB00BF30379E
:101D4800BD4680BD0004024000540040A08601004A
:101D580080B584B000AF3B1D00221A605A609A60BB
:101D6800FFF754FC0346B3F5007F07D0FFF76CFC80
:101D7800FFF77AFC4FF40070FFF734FCFFF754FCD0
:101D880000237B607F23BB60FF23FB603B1D19465C
:101D9800074802F09FF87F210548FFF76DFDFF21F6
:101DA8000348FFF77DFD00BF1037BD4680BD00BF6B
:101DB8000028004080B590B000AF07F11803282232
:101DC8000021184603F0FCFC3B4600221A605A60CA
:101DD8009A60DA601A615A614FF48050FFF7EEFC9E
:101DE8000120FFF7BBFCE0233B6002237B60032359
:101DF800BB600023FB6000233B6105237B613B46FE
:101E08001946134800F0A1FD0023BB614FF482730B
:101E1800FB6100233B6200237B620023BB624FF41B
:101E28000073FB6200233B6300237B630023BB63D7
:101E38000A23FB6307F118031946064802F0D1F894
:101E480000210448FFF741FD00BF4037BD4680BD73
:101E5800000002400030014080B590B000AF07F1AB
:101E6800180328220021184603F0AAFC3B4600224A
:101E78001A605A609A60DA601A615A614FF48040B9
:101E8800FFF784FC0420FFF769FC0220FFF766FCDB
:101E98000C233B6002237B600323BB600023FB60B1
:101EA80000233B6105237B613B4619461C4800F033
:101EB8004CFD4FF480633B6002237B600323BB60CF
:101EC8000023FB6000233B6105237B613B461946E9
:101ED800144800F03AFD0023BB614FF48273FB61A4
:101EE80000233B6200237B620023BB624FF4007334
:101EF800FB6200233B6300237B630023BB630A234D
:101F0800FB6307F118031946074802F06AF8002135
:101F18000548FFF7DAFC00BF4037BD4680BD00BF6B
:101F280000080240000402400038004080B58EB02E
:101F380000AF07F11C0300221A605A609A60DA6049
:101F48001A615A619A613B1D00221A605A609A60B0
:101F5800DA601A615A611020FFF730FC0120FFF7A0
:101F6800FDFB4FF4C0637B600223BB600323FB606F
:101F780000233B6100237B610723BB613B1D19469E
:101F8800104800F0E2FC4FF4E133FB6100233B62B0
:101F980000237B620023BB620C23FB6200233B63AC
:101FA80000237B6307F11C031946074802F0E2FC93
:101FB8000548FFF7ADFC0448FFF79AFC00BF383727
:101FC800BD4680BD000002400010014080B500AF52
:101FD800124B134A1A60114B4FF4E1325A600F4BFF
:101FE80000229A600D4B0022DA600C4B00221A6125
:101FF8000A4B0C225A61094B00229A61074B0022B6
:10200800DA61064B00221A62044802F033FD0346E7
:10201800002B01D000F0F4F800BF80BD700900204B
:102028000044004080B500AF144B4FF0A0421A6046
:10203800124B04225A60114B0222DA600F4B002225
:102048001A610E4B02229A610C4B0022DA610B4B8B
:1020580000221A62094B00225A62084B0022DA62F7
:10206800064B00221A63054802F04CFF0346002B7A
:1020780001D000F0C5F800BF80BD00BF40050020BA
:1020880080B500AF154B164A1A60144B06225A60E9
:10209800124B0222DA60114B00221A610F4B022206
:1020A8009A610E4B0022DA610C4B00221A620B4B2C
:1020B80000225A62094B0022DA62084B00221A6396
:1020C800064B00225A63054802F01CFF0346002B0A
:1020D80001D000F095F800BF80BD00BF3801002096
:1020E8000000044080B586B000AF3B4600221A606D
:1020F8005A609A60DA601A615A611020FFF72EFB65
:102108008020FFF72BFB0420FFF728FB0120FFF7B7
:1021180025FB0220FFF722FB0820FFF71FFB4EF2EA
:1021280008012A48FFF70AFC10212948FFF706FC96
:1021380002212848FFF702FC4EF208033B60012306
:102148007B600023BB600023FB6000233B613B46B0
:1021580019461E4800F0F9FB10233B6001237B6001
:102168000023BB600023FB6000233B613B4619460C
:10217800174800F0EAFB02233B6001237B60002341
:10218800BB600023FB6000233B613B4619461148B6
:1021980000F0DBFB4FF4E0533B6000237B6000233F
:1021A8003B613B461946094800F0CFFB80233B6062
:1021B80000237B6000233B613B461946064800F03C
:1021C800C4FB00BF1837BD4680BD00BF00100240E9
:1021D80000000240000402400008024080B582B0BE
:1021E80000AF78607B681B68044A934201D101F014
:1021F80059F900BF0837BD4680BD00BF000C00403C
:1022080080B400AF72B600BFFEE780B400AFFEE74F
:1022180080B400AFFEE780B400AFFEE780B400AF43
:10222800FEE780B400AFFEE780B400AF00BFBD4654
:102238005DF8047B7047000080B500AF024801F0EC
:102248004CFA00BF80BD00BFB409002080B500AFC4
:10225800024801F0E1FF00BF80BD00BFDC0900209B
:1022680080B500AF024801F038FA00BF80BD00BF5A
:102278004809002080B483B000AF00237B60104B76
:102288005B6C0F4A43F4804353640D4B5B6C03F45F
:1022980080437B607B6800233B60094B1B6C084ACA
:1022A80043F080531364064B1B6C03F080533B6070
:1022B8003B6800BF0C37BD465DF8047B704700BF24
:1022C8000038024080B58CB000AF786007F11C037D
:1022D80000221A605A609A60DA601A617B681B688B
:1022E8004A4A93423DD14A4B1B680133484A13601E
:1022F800474B1B68012B0DD10023BB61454B1B6C61
:10230800444A43F000731364424B1B6C03F00073A0
:10231800BB61BB6900237B613E4B1B6B3D4A43F0AD
:10232800080313633B4B1B6B03F008037B617B695A
:102338000323FB6102233B6200237B620323BB620E
:102348000923FB6207F11C031946334800F00AFE13
:1023580000220021142001F059F8142001F072F82D
:1023680050E07B681B682D4A93424BD100233B61A8
:10237800284B1B6C274A43F080631364254B1B6C66
:1023880003F080633B613B69214B1B680133204AA2
:1023980013601F4B1B68012B0DD10023FB601D4BE5
:1023A8001B6C1C4A43F0007313641A4B1B6C03F03C
:1023B8000073FB60FB680023BB60164B1B6B154A60
:1023C80043F002031363134B1B6B03F00203BB6060
:1023D800BB684FF48253FB6102233B6200237B629C
:1023E8000323BB620923FB6207F11C0319460C484F
:1023F80000F0B8FD00220021402001F007F840203D
:1024080001F020F800BF3037BD4680BD00640040B1
:10241800E400002000380240000C02400068004040
:102428000004024080B58AB000AF786007F1140359
:1024380000221A605A609A60DA601A617B681B6829
:10244800194A93422BD100233B61184B1B6C174A46
:1024580043F400331364154B1B6C03F400333B61E6
:102468003B690023FB60114B1B6B104A43F00803C8
:1024780013630E4B1B6B03F00803FB60FB68E02340
:102488007B610223BB610023FB6103233B620723BB
:102498007B6207F114031946054800F063FD00BF8D
:1024A8002837BD4680BD00BF0044004000380240C8
:1024B800000C024080B58CB000AF786007F11C03B7
:1024C80000221A605A609A60DA601A617B681B6899
:1024D800B3F1A04F33D10023BB61344B1B6B334A9C
:1024E80043F001031363314B1B6B03F00103BB6122
:1024F800BB694FF4C053FB6102233B6200237B623C
:102508000323BB620A23FB6207F11C031946284810
:1025180000F028FD254B5B6B244A43F0800353638E
:1025280000237B61214B5B6C204A43F48043536456
:102538001E4B5B6C03F480437B617B6931E07B68F5
:102548001B681C4A93422CD100233B61174B1B6B21
:10255800164A43F002031363144B1B6B03F0020388
:102568003B613B694FF44043FB6102233B6200231C
:102578007B620323BB620C23FB6207F11C03194631
:102588000D4800F0EFFC0023FB60084B1B6B074A6B
:1025980043F000531363054B1B6B03F00053FB60C0
:1025A800FB6800BF3037BD4680BD00BF0038024021
:1025B80000000240000004400004024080B58EB0D4
:1025C80000AF78600023FB620023BB620023FB603E
:1025D800334B1B6C324A43F008031364304B1B6CBB
:1025E80003F00803FB60FB6807F1100207F114030E
:1025F8001146184600F084FC3B6AFB62FB6A002B1C
:1026080003D100F055FC786304E000F051FC034668
:102618005B007B637B6B234AA2FB03239B0C013B80
:10262800BB62214B214A1A601F4B40F2E732DA6045
:102638001D4ABB6A53601C4B00221A611A4B0022C8
:102648009A60194B00229A61174801F01CFD034655
:1026580087F8333097F83330002B1BD1124801F03C
:102668006BFD034687F8333097F83330002B11D1D0
:10267800322000F0E7FE7B680F2B08D8002279682B
:10268800322000F0C3FE0A4A7B68136002E001238F
:1026980087F8333097F8333018463837BD4680BD51
:1026A8000038024083DE1B43DC090020000C004098
:1026B800A000002080B48BB000AFF860B9607A60E9
:1026C800FB681A68BB687B617B6993FAA3F33B617B
:1026D8003B69BB61BB69002B01D1202303E0BB69C7
:1026E800B3FA83F3DBB25B00032101FA03F3DB43A4
:1026F8001A40BB683B623B6A93FAA3F3FB61FB6930
:102708007B627B6A002B01D1202303E07B6AB3FA4A
:1027180083F3DBB25B00796801FA03F31A43FB68C1
:102728001A6000BF2C37BD465DF8047B704780B443
:1027380085B000AFF860B9607A60FB685A68BB681A
:10274800DB431A40BB68796801FB03F31A43FB6853
:102758005A6000BF1437BD465DF8047B704780B4EB
:102768008BB000AFF860B9607A60FB689A68BB68A4
:102778007B617B6993FAA3F33B613B69BB61BB69EE
:10278800002B01D1202303E0BB69B3FA83F3DBB24A
:102798005B00032101FA03F3DB431A40BB683B6289
:1027A8003B6A93FAA3F3FB61FB697B627B6A002BAC
:1027B80001D1202303E07B6AB3FA83F3DBB25B0029
:1027C800796801FA03F31A43FB689A6000BF2C3753
:1027D800BD465DF8047B704780B48BB000AFF860ED
:1027E800B9607A60FB68DA68BB687B617B6993FAD9
:1027F800A3F33B613B69BB61BB69002B01D120237B
:1028080003E0BB69B3FA83F3DBB25B00032101FA8F
:1028180003F3DB431A40BB683B623B6A93FAA3F3BA
:10282800FB61FB697B627B6A002B01D1202303E0FB
:102838007B6AB3FA83F3DBB25B00796801FA03F3CE
:102848001A43FB68DA6000BF2C37BD465DF8047B8D
:10285800704780B48BB000AFF860B9607A60FB68ED
:102868001A6ABB687B617B6993FAA3F33B613B6996
:10287800BB61BB69002B01D1202303E0BB69B3FA1C
:1028880083F3DBB29B000F2101FA03F3DB431A4009
:10289800BB683B623B6A93FAA3F3FB61FB697B620B
:1028A8007B6A002B01D1202303E07B6AB3FA83F310
:1028B800DBB29B00796801FA03F31A43FB681A62DA
:1028C80000BF2C37BD465DF8047B704780B48BB0E1
:1028D80000AFF860B9607A60FB685A6ABB681B0A87
:1028E8007B617B6993FAA3F33B613B69BB61BB697D
:1028F800002B01D1202303E0BB69B3FA83F3DBB2D9
:102908009B000F2101FA03F3DB431A40BB681B0A43
:102918003B623B6A93FAA3F3FB61FB697B627B6AC8
:10292800002B01D1202303E07B6AB3FA83F3DBB2E7
:102938009B00796801FA03F31A43FB685A6200BFE7
:102948002C37BD465DF8047B704780B58AB000AF70
:102958007860396000237B6200233B623B681B6818
:10296800BB61BB6993FAA3F37B617B69FB61FB697C
:10297800002B01D1202303E0FB69B3FA83F3DBB218
:102988007B6257E03B681A6801217B6A01FA03F30E
:1029980013403B623B6A002B49D03B685B68012BC4
:1029A80003D03B685B68022B0DD13B689B681A46D5
:1029B800396A7868FFF7D3FE3B68DB681A46396ADC
:1029C8007868FFF7B4FE3B681B691A46396A78686D
:1029D800FFF702FF3B685B68022B21D13B6AFB6073
:1029E800FB6893FAA3F3BB60BB683B613B69002BB0
:1029F80001D1202303E03B69B3FA83F3DBB2072B51
:102A080007D83B685B691A46396A7868FFF721FF7F
:102A180006E03B685B691A46396A7868FFF756FF33
:102A28003B685B681A46396A7868FFF743FE7B6A39
:102A380001337B623B681A687B6A22FA03F3002B36
:102A4800A0D1002318462837BD4680BD80B483B086
:102A580000AF786039607B68DB6A23F470023B68FA
:102A68001A437B68DA6200BF0C37BD465DF8047B09
:102A7800704780B483B000AF78607B689B6803F0D0
:102A88000103012B0CBF01230023DBB218460C37CE
:102A9800BD465DF8047B704790B585B000AF78609F
:102AA80039600023FB731C48FFF7E3FF04461B480B
:102AB800FFF7DFFF03461C431948FFF7DAFF034619
:102AC8002343002B20D13B685B68002B12D07B6826
:102AD8005A68144B13403A6811683A6852681143AF
:102AE8003A68926811433A68D2680A431A437B6885
:102AF8005A600BE07B685A680A4B13403A681268C0
:102B08001A437B685A6001E00123FB73FB7B18467C
:102B18001437BD4690BD00BF002001400021014090
:102B280000220140E010FCFF80B584B000AF78605F
:102B380039600023FB737868FFF79BFF0346002B7F
:102B480017D17B685B6823F0407323F480733A687D
:102B580011683A6892680A431A437B685A607B682E
:102B68009B6823F400623B685B681A437B689A6041
:102B780001E00123FB73FB7B18461037BD4680BD7F
:102B880080B584B000AF786039600023FB73786843
:102B9800FFF76FFF0346002B2BD13B685B68002BC8
:102BA80009D07B685B6823F468423B689B681A43DA
:102BB8007B685A6005E07B685B6823F468427B6841
:102BC8005A607B689A680E4B13403A68126802F0A4
:102BD80070613A68D26811433A6812690A431A4325
:102BE8007B689A603B685B6819467868FFF72EFF38
:102BF80001E00123FB73FB7B18461037BD4680BDFF
:102C0800FDFCFFC080B400AF044B9B6803F00C03CD
:102C18001846BD465DF8047B704700BF0038024087
:102C280080B400AF044B9B6803F0F0031846BD4620
:102C38005DF8047B704700BF0038024080B400AFE5
:102C4800044B9B6803F4E0531846BD465DF8047BCB
:102C5800704700BF0038024080B400AF044B9B6847
:102C680003F460431846BD465DF8047B704700BF17
:102C78000038024080B400AF044B5B6803F4800363
:102C88001846BD465DF8047B704700BF0038024017
:102C980080B400AF044B5B689B09C3F30803184674
:102CA800BD465DF8047B70470038024080B400AF31
:102CB800044B5B6803F440331846BD465DF8047B5B
:102CC800704700BF0038024080B400AF044B5B6817
:102CD80003F03F031846BD465DF8047B704700BF0C
:102CE8000038024080B582B000AF786000F020F86C
:102CF80002467B681A607B681B68184600F040F83B
:102D080002467B685A607B685B68184600F04EF89C
:102D180002467B689A607B685B68184600F05AF840
:102D280002467B68DA6000BF0837BD4680BD0000F8
:102D380080B582B000AF00237B60FFF763FF0346D6
:102D4800082B0CD0082B0FD8002B02D0042B03D053
:102D58000AE0094B7B600AE0084B7B6007E008202B
:102D680000F04CF8786002E0034B7B6000BF7B68A2
:102D780018460837BD4680BD0024F40040787D0120
:102D880080B582B000AF7860FFF74AFF03461B09A1
:102D980003F00F03044AD35C1A467B68D3401846F5
:102DA8000837BD4680BD00BFF457000880B582B023
:102DB80000AF7860FFF742FF03469B0A044AD35CE2
:102DC8001A467B68D34018460837BD4680BD00BF09
:102DD8000458000880B582B000AF7860FFF73CFF68
:102DE80003465B0B044AD35C1A467B68D3401846FB
:102DF8000837BD4680BD00BF0458000890B587B0AD
:102E080000AF786000237B610023FB6000233B61F7
:102E1800FFF730FFF860FB68002B04D0FB68B3F5C0
:102E2800800F03D005E0124B7B6105E0114B7B61FD
:102E380002E00F4B7B6100BF7B68082B13D1FFF7C3
:102E480043FF02467B69B3FBF2F4FFF721FF034619
:102E580003FB04F4FFF72AFF03461B0C01335B0056
:102E6800B4FBF3F33B613B6918461C37BD4690BD84
:102E78000024F40040787D0180B483B000AF78600E
:102E8800044A7B68136000BF0C37BD465DF8047BBD
:102E9800704700BFA800002080B400AF034B1B6838
:102EA8001846BD465DF8047B704700BFA8000020A7
:102EB80080B500AFFFF7F0FF0246054B9B689B0A01
:102EC80003F007030349CB5C22FA03F3184680BDDD
:102ED800003802400458000880B500AFFFF7DCFF57
:102EE8000246054B9B685B0B03F007030349CB5C69
:102EF80022FA03F3184680BD00380240045800083F
:102F080080B483B000AF786039607B680F221A60A4
:102F1800124B9B6803F003027B685A600F4B9B6857
:102F280003F0F0027B689A600C4B9B6803F4E05254
:102F38007B68DA60094B9B68DB0803F4E0527B6826
:102F48001A61074B1B6803F007023B681A6000BF51
:102F58000C37BD465DF8047B704700BF003802405F
:102F6800003C024080B489B000AF7860396000232B
:102F78007B6100233B610023BB610023FB616BE1A4
:102F88000122FB6902FA03F37B613B681B687A69DB
:102F980013403B613A697B699A4240F05A813B6829
:102FA8005B6803F00303012B05D03B685B6803F003
:102FB8000303022B30D17B689B68BB61FB695B0014
:102FC800032202FA03F3DB43BA691340BB613B688F
:102FD800DA68FB695B0002FA03F3BA691343BB6161
:102FE8007B68BA699A607B685B68BB610122FB6990
:102FF80002FA03F3DB43BA691340BB613B685B68C1
:103008001B0903F00102FB6902FA03F3BA691343CF
:10301800BB617B68BA695A603B685B6803F003036D
:10302800032B17D07B68DB68BB61FB695B0003225D
:1030380002FA03F3DB43BA691340BB613B689A6841
:10304800FB695B0002FA03F3BA691343BB617B684F
:10305800BA69DA603B685B6803F00303022B23D18B
:10306800FB69DA087B68083253F82230BB61FB69D8
:1030780003F007039B000F2202FA03F3DB43BA694C
:103088001340BB613B681A69FB6903F007039B00A7
:1030980002FA03F3BA691343BB61FB69DA087B6878
:1030A8000832B96943F822107B681B68BB61FB6969
:1030B8005B00032202FA03F3DB43BA691340BB61E6
:1030C8003B685B6803F00302FB695B0002FA03F3E9
:1030D800BA691343BB617B68BA691A603B685B686D
:1030E80003F44033002B00F0B4800023FB60604BF6
:1030F8005B6C5F4A43F4804353645D4B5B6C03F441
:103108008043FB60FB685B4AFB699B08023352F80B
:103118002330BB61FB6903F003039B000F2202FA13
:1031280003F3DB43BA691340BB617B68524A93429D
:103138002BD07B68514A934225D07B68504A9342F2
:103148001FD07B684F4A934219D07B684E4A9342FE
:1031580013D07B684D4A93420DD07B684C4A93420A
:1031680007D07B684B4A934201D107230EE008231E
:103178000CE006230AE0052308E0042306E0032305
:1031880004E0022302E0012300E00023FA6902F0D0
:10319800030292009340BA691343BB613549FB6946
:1031A8009B080233BA6941F823203B4B1B68BB617B
:1031B8003B69DB43BA691340BB613B685B6803F456
:1031C8008033002B03D0BA693B691343BB61324A91
:1031D800BB691360304B5B68BB613B69DB43BA6911
:1031E8001340BB613B685B6803F40033002B03D0DA
:1031F800BA693B691343BB61274ABB695360264BD5
:103208009B68BB613B69DB43BA691340BB613B68A0
:103218005B6803F48013002B03D0BA693B6913433E
:10322800BB611D4ABB6993601B4BDB68BB613B6993
:10323800DB43BA691340BB613B685B6803F4001366
:10324800002B03D0BA693B691343BB61124ABB69BF
:10325800D360FB690133FB61FB690F2B7FF690AEEE
:1032680000BF00BF2437BD465DF8047B704700BF30
:1032780000380240003801400000024000040240CB
:1032880000080240000C02400010024000140240F6
:1032980000180240001C0240003C014080B485B088
:1032A80000AF78607B6803F00703FB600C4BDB68BA
:1032B800BB60BA684FF6FF031340BB60FB681A0295
:1032C800BB68134343F0BF6343F40033BB60044A55
:1032D800BB68D36000BF1437BD465DF8047B7047F8
:1032E80000ED00E080B400AF044BDB681B0A03F07C
:1032F80007031846BD465DF8047B704700ED00E003
:1033080080B483B000AF0346FB7197F90730002BF8
:103318000BDBFB7903F01F02074997F907305B09BC
:10332800012000FA02F241F8232000BF0C37BD4605
:103338005DF8047B704700BF00E100E080B483B013
:1033480000AF03463960FB7197F90730002B0ADBA1
:103358003B68DAB20C4997F907301201D2B20B4434
:1033680083F800230AE03B68DAB20849FB7903F0E6
:103378000F03043B1201D2B20B441A7600BF0C377C
:10338800BD465DF8047B704700E100E000ED00E019
:1033980080B489B000AFF860B9607A60FB6803F068
:1033A8000703FB61FB69C3F10703042B28BF042350
:1033B800BB61FB690433062B02D9FB69033B00E0C0
:1033C80000237B614FF0FF32BB6902FA03F3DA4353
:1033D800BB681A407B699A404FF0FF317B6901FA5C
:1033E80003F3D9437B680B40134318462437BD4683
:1033F8005DF8047B704780B582B000AF786078686C
:10340800FFF74CFF00BF0837BD4680BD80B586B0CA
:1034180000AF0346B9607A60FB7300237B61FFF756
:1034280061FF78617A68B9687869FFF7B1FF024689
:1034380097F90F3011461846FFF780FF00BF18377D
:10344800BD4680BD80B582B000AF0346FB7197F9D9
:1034580007301846FFF754FF00BF0837BD4680BD48
:1034680080B500AF0E4B1B680D4A43F40073136020
:103478000B4B1B680A4A43F480631360084B1B68B4
:10348800074A43F4807313600320FFF7B4FF0F204B
:10349800FFF794F8FEF7EEFE0023184680BD00BF44
:1034A800003C024080B400AF064B1B781A46064B1E
:1034B8001B681344044A136000BFBD465DF8047BD3
:1034C800704700BFA4000020240A002080B400AF89
:1034D800034B1B681846BD465DF8047B704700BF68
:1034E800240A002080B584B000AF78607B68002B88
:1034F80001D10123EDE07B6893F82030DBB2002B8B
:1035080002D17868FEF7DEFE7B681B681A687B6864
:103518001B6842F001021A60FFF7D8FFF86012E05A
:10352800FFF7D4FF0246FB68D31A0A2B0BD97B6836
:103538005B6A43F400327B685A627B68052283F831
:1035480020200123C5E07B681B685B6803F001034A
:10355800002BE5D07B681B681A687B681B6822F023
:1035680002021A60FFF7B2FFF86012E0FFF7AEFF41
:103578000246FB68D31A0A2B0BD97B685B6A43F4B3
:1035880000327B685A627B68052283F82020012379
:103598009FE07B681B685B6803F00203002BE5D1A2
:1035A8007B681B7E012B08D17B681B681A687B68C7
:1035B8001B6842F080021A6007E07B681B681A6883
:1035C8007B681B6822F080021A607B685B7E012B97
:1035D80008D17B681B681A687B681B6842F0400248
:1035E8001A6007E07B681B681A687B681B6822F012
:1035F80040021A607B689B7E012B08D17B681B68A0
:103608001A687B681B6842F020021A6007E07B6832
:103618001B681A687B681B6822F020021A607B68A6
:10362800DB7E012B08D17B681B681A687B681B68E6
:1036380022F010021A6007E07B681B681A687B6832
:103648001B6842F010021A607B681B7F012B08D1AF
:103658007B681B681A687B681B6842F008021A605E
:1036680007E07B681B681A687B681B6822F0080201
:103678001A607B685B7F012B08D17B681B681A681E
:103688007B681B6842F004021A6007E07B681B68CD
:103698001A687B681B6822F004021A607B689A68C3
:1036A8007B68DB681A437B681B691A437B685B6924
:1036B80042EA03017B685B685A1E7B681B680A4301
:1036C800DA617B6800225A627B68012283F8202035
:1036D800002318461037BD4680BD80B58AB000AFBC
:1036E800786000237B627B681B685B693B627B6850
:1036F8001B685B68FB617B681B689B68BB617B68B8
:103708001B68DB687B617B681B681B693B617B68A6
:103718001B689B69FB603B6A03F00103002B7CD0AC
:10372800BB6903F00103002B23D07B681B680122CF
:103738009A60BB6903F00203002B03D0786800F09D
:1037480083F916E0BB6903F00403002B04D07B6AFD
:1037580043F400637B620CE0BB6903F00803002BB1
:1037680004D07B6A43F480537B6202E0786800F0FF
:1037780089F9BB6903F48073002B24D07B681B682C
:103788004FF480729A60BB6903F40073002B03D076
:10379800786800F063F916E0BB6903F48063002BD6
:1037A80004D07B6A43F400537B620CE0BB6903F4EA
:1037B8000063002B04D07B6A43F480437B6202E001
:1037C800786800F069F9BB6903F48033002B24D0D2
:1037D8007B681B684FF480329A60BB6903F400333E
:1037E800002B03D0786800F043F916E0BB6903F4B6
:1037F8008023002B04D07B6A43F400437B620CE0F7
:10380800BB6903F40023002B04D07B6A43F48033A4
:103818007B6202E0786800F049F93B6A03F008032C
:10382800002B0CD07B6903F01003002B07D07B6AB8
:1038380043F400737B627B681B681022DA603B6A82
:1038480003F00403002B0BD07B6903F00803002B63
:1038580006D07B681B680822DA60786800F03AF9BD
:103868003B6A03F00203002B09D07B681B68DB6806
:1038780003F00303002B02D0786800F021F93B6ABB
:1038880003F04003002B0CD03B6903F01003002B1E
:1038980007D07B6A43F480637B627B681B681022D5
:1038A8001A613B6A03F02003002B0BD03B6903F03D
:1038B8000803002B06D07B681B6808221A61786809
:1038C80000F01CF93B6A03F01003002B09D07B6859
:1038D8001B681B6903F00303002B02D0786800F013
:1038E80003F93B6A03F40033002B0BD0FB6903F0A8
:1038F8001003002B06D07B681B6810225A6078687A
:1039080000F006F93B6A03F48033002B0BD0FB6907
:1039180003F00803002B06D07B681B6808225A6056
:10392800786800F0FFF83B6A03F40043002B7BD073
:10393800FB6903F00403002B72D03B6A03F4807325
:10394800002B08D0FB6803F00103002B03D07B6A2F
:1039580043F001037B623B6A03F40073002B08D039
:10396800FB6803F00203002B03D07B6A43F00203D9
:103978007B623B6A03F48063002B08D0FB6803F08A
:103988000403002B03D07B6A43F004037B623B6A89
:1039980003F40063002B43D0FB6803F07003002B93
:1039A8003ED0FB6803F07003602B2BD0602B2ED821
:1039B800502B22D0502B2AD8402B19D0402B26D858
:1039C800302B10D0302B22D8102B02D0202B05D032
:1039D8001DE07B6A43F008037B6219E07B6A43F0D1
:1039E80010037B6214E07B6A43F020037B620FE0E4
:1039F8007B6A43F040037B620AE07B6A43F0800302
:103A08007B6205E07B6A43F480737B6200E000BF61
:103A18007B681B689A697B681B6822F070029A6150
:103A28007B681B6804225A607B6A002B08D07B687D
:103A38005A6A7B6A1A437B685A62786800F07CF895
:103A480000BF2837BD4680BD80B483B000AF786022
:103A580000BF0C37BD465DF8047B704780B483B067
:103A680000AF786000BF0C37BD465DF8047B704737
:103A780080B483B000AF786000BF0C37BD465DF8F6
:103A8800047B704780B483B000AF786000BF0C3708
:103A9800BD465DF8047B704780B483B000AF7860A2
:103AA80000BF0C37BD465DF8047B704780B483B017
:103AB80000AF786000BF0C37BD465DF8047B7047E7
:103AC80080B483B000AF786000BF0C37BD465DF8A6
:103AD800047B704780B483B000AF786000BF0C37B8
:103AE800BD465DF8047B704780B483B000AF786052
:103AF80000BF0C37BD465DF8047B704780B483B0C7
:103B080000AF786000BF0C37BD465DF8047B704796
:103B180080B483B000AF786000BF0C37BD465DF855
:103B2800047B704780B483B000AF786000BF0C3767
:103B3800BD465DF8047B704780B483B000AF786001
:103B480000BF0C37BD465DF8047B704780B483B076
:103B580000AF78607B681B6843F001027B681A60DD
:103B680000BF0C37BD465DF8047B704780B483B056
:103B780000AF78607B681B6823F001027B681A60DD
:103B880000BF0C37BD465DF8047B704780B485B034
:103B980000AFF860B9607A60FB689B6823F4034360
:103BA80023F0FF03B9687A680A431A43FB689A60EE
:103BB80000BF1437BD465DF8047B704780B487B0FA
:103BC80000AFF860B9607A603B6000233B61002376
:103BD8007B61BB68424AA2FB03239B0C3B61FB68E9
:103BE8005B6823F03F023B691A43FB685A60FB6835
:103BF8001B6A23F03F027B683A498B4202D83B6933
:103C0800013309E03B694FF4967101FB03F3364930
:103C1800A1FB03139B0901331A43FB681A627B68F3
:103C2800304A934239D93B68002B17D17A6813463A
:103C38005B001344BA68B2FBF3F3C3F30B03002B26
:103C480009D07A6813465B001344BA68B2FBF3F3F1
:103C580043F400431DE048F201031AE07A68134672
:103C68009B0013449A001344BA68B2FBF3F3C3F3FE
:103C78000B03002B0BD07A6813469B0013449A0061
:103C88001344BA68B2FBF3F343F4004301E048F28B
:103C980001033A6813437B6111E07B685B00BA68F3
:103CA800B2FBF3F240F6FC731340002B05D07B689F
:103CB8005B00BA68B2FBF3F300E004237B61FB68A6
:103CC800DB6923F44F4323F0FF037A691A43FB6847
:103CD800DA6100BF1C37BD465DF8047B704700BF42
:103CE80083DE1B43A0860100D34D621080B483B0ED
:103CF80000AF786039607B681B6823F01A023B6864
:103D08001A437B681A6000BF0C37BD465DF8047B18
:103D1800704780B483B000AF786039607B681B68F7
:103D280023F480623B681A437B681A6000BF0C3733
:103D3800BD465DF8047B704780B586B000AF7860FB
:103D480039607868FFF712FF07F108031846FEF795
:103D5800C9FF39693B685A683B689B687868FFF710
:103D68002DFF3B68D9683B685B691A467868FFF79E
:103D78000DFF3B681B6819467868FFF7B7FF78683E
:103D8800FFF7E4FE3B681B6919467868FFF7C1FF37
:103D9800002318461837BD4680BD80B483B000AFF5
:103DA800786039607B689B6823F040023B681A435F
:103DB8007B689A6000BF0C37BD465DF8047B70478E
:103DC80080B483B000AF78607B684FF0FF32DA6070
:103DD80000BF0C37BD465DF8047B704780B483B0E4
:103DE80000AF78607B686FF08002DA6000BF0C3744
:103DF800BD465DF8047B704780B483B000AF78603F
:103E080039607B681B6923F4FE023B681B041A4374
:103E18007B681A6100BF0C37BD465DF8047B7047AC
:103E280080B483B000AF786039607B681B6923F485
:103E3800FF4323F07F033A681A437B681A6100BF87
:103E48000C37BD465DF8047B704780B483B000AF83
:103E580078607B68FF225A6200BF0C37BD465DF868
:103E6800047B704780B483B000AF78607B68CA2257
:103E78005A627B6853225A6200BF0C37BD465DF810
:103E8800047B704780B483B000AF78607B68DB68E0
:103E980003F04003402B0CBF01230023DBB218467C
:103EA8000C37BD465DF8047B7047000080B400AF56
:103EB800074B1B6803F48033B3F5803F0CBF012325
:103EC8000023DBB21846BD465DF8047B704700BF8F
:103ED80010E000E080B584B000AF7860396001235D
:103EE800FB737868FFF7BEFF786800F022F8034696
:103EF800012B16D03B681B6819467868FFF74DFF01
:103F08003B689B6819467868FFF78AFF3B685B68DF
:103F180019467868FFF770FF7868FFF75FFF00239E
:103F2800FB737868FFF791FFFB7B18461037BD4697
:103F380080BD80B586B000AF78604FF47A73FB60BF
:103F48000023FB7500233B617868FFF79BFF03465E
:103F5800002B1ED17868FFF733FF7868FFF792FFD0
:103F6800386110E0FFF7A2FF0346012B02D1FB687E
:103F7800013BFB607868FFF785FF3861FB68002B21
:103F880001D10123FB75FB68002B02D03B69012B93
:103F9800E8D1FB7D18461837BD4680BD80B483B094
:103FA80000AF78607B681B6803F04003402B01D1A9
:103FB800012300E0002318460C37BD465DF8047B5A
:103FC800704780B483B000AF786039603B689BB2BB
:103FD8001A467B681A6100BF0C37BD465DF8047B42
:103FE800704780B584B000AF786039600123FB73F7
:103FF8007868FFF7D3FF0346002B39D17B681B682D
:1040080023F47F4323F0BF033A6811683A68526883
:1040180011433A68926811433A68D26811433A6882
:10402800126911433A68526911433A689269114317
:104038003A68D26911433A68126A0A431A437B689C
:104048001A607B685B6823F004023B685B691B0CA1
:104058001A437B685A603B681B6AB3F5005F05D159
:104068003B685B6A19467868FFF7ABFF0023FB7370
:104078007B68DB6923F400627B68DA61FB7B1846A6
:104088001037BD4680BD80B582B000AF78607B68D0
:10409800002B01D1012341E07B6893F83D30DBB26E
:1040A800002B06D17B68002283F83C20786800F05A
:1040B80039F87B68022283F83D207B681A687B68A0
:1040C80004331946104600F0D7F97B68012283F8BB
:1040D80046207B68012283F83E207B68012283F812
:1040E8003F207B68012283F840207B68012283F807
:1040F80041207B68012283F842207B68012283F8F3
:1041080043207B68012283F844207B68012283F8DE
:1041180045207B68012283F83D2000231846083794
:10412800BD4680BD80B483B000AF786000BF0C3757
:10413800BD465DF8047B704780B485B000AF7860F9
:104148007B6893F83D30DBB2012B01D001234EE0B0
:104158007B68022283F83D207B681B68DA687B68ED
:104168001B6842F00102DA607B681B68234A9342AD
:1041780022D07B681B68B3F1804F1DD07B681B6819
:104188001F4A934218D07B681B681E4A934213D07B
:104198007B681B681C4A93420ED07B681B681B4ACD
:1041A800934209D07B681B68194A934204D07B6804
:1041B8001B68184A934211D17B681B689B6803F0FF
:1041C8000703FB60FB68062B10D07B681B681A6826
:1041D8007B681B6842F001021A6007E07B681B6875
:1041E8001A687B681B6842F001021A6000231846AF
:1041F8001437BD465DF8047B704700BF00000140DE
:104208000004004000080040000C00400004014089
:10421800004001400018004080B582B000AF7860CF
:104228007B681B681B6903F00203022B22D17B68A1
:104238001B68DB6803F00203022B1BD17B681B6839
:104248006FF002021A617B6801221A777B681B688B
:104258009B6903F00303002B03D0786800F0EEF8A5
:1042680005E0786800F0E0F8786800F0F1F87B681D
:1042780000221A777B681B681B6903F00403042B70
:1042880022D17B681B68DB6803F00403042B1BD175
:104298007B681B686FF004021A617B6802221A7738
:1042A8007B681B689B6903F44073002B03D0786814
:1042B80000F0C4F805E0786800F0B6F8786800F017
:1042C800C7F87B6800221A777B681B681B6903F0B4
:1042D8000803082B22D17B681B68DB6803F00803FE
:1042E800082B1BD17B681B686FF008021A617B687A
:1042F80004221A777B681B68DB6903F00303002B31
:1043080003D0786800F09AF805E0786800F08CF837
:10431800786800F09DF87B6800221A777B681B6834
:104328001B6903F01003102B22D17B681B68DB6824
:1043380003F01003102B1BD17B681B686FF0100271
:104348001A617B6808221A777B681B68DB6903F4AB
:104358004073002B03D0786800F070F805E07868A7
:1043680000F062F8786800F073F87B6800221A772A
:104378007B681B681B6903F00103012B0ED17B6866
:104388001B68DB6803F00103012B07D17B681B68FE
:104398006FF001021A617868FDF720FF7B681B68DF
:1043A8001B6903F08003802B0ED17B681B68DB68D8
:1043B80003F08003802B07D17B681B686FF08002B5
:1043C8001A61786800F002F97B681B681B6903F0C2
:1043D8004003402B0ED17B681B68DB6803F0400369
:1043E800402B07D17B681B686FF040021A61786820
:1043F80000F038F87B681B681B6903F02003202B4A
:104408000ED17B681B68DB6803F02003202B07D1E3
:104418007B681B686FF020021A61786800F0CCF89E
:1044280000BF0837BD4680BD80B483B000AF786058
:1044380000BF0C37BD465DF8047B704780B483B07D
:1044480000AF786000BF0C37BD465DF8047B70474D
:1044580080B483B000AF786000BF0C37BD465DF80C
:10446800047B704780B483B000AF786000BF0C371E
:10447800BD465DF8047B704780B485B000AF7860B6
:1044880039607B681B68FB607B68404A934213D0A5
:104498007B68B3F1804F0FD07B683D4A93420BD0C5
:1044A8007B683C4A934207D07B683B4A934203D0DF
:1044B8007B683A4A934208D1FB6823F07003FB609B
:1044C8003B685B68FA681343FB607B682F4A93423A
:1044D8002BD07B68B3F1804F27D07B682C4A93425E
:1044E80023D07B682B4A93421FD07B682A4A934289
:1044F8001BD07B68294A934217D07B68284A93428D
:1045080013D07B68274A93420FD07B68264A934290
:104518000BD07B68254A934207D07B68244A934294
:1045280003D07B68234A934208D1FB6823F4407385
:10453800FB603B68DB68FA681343FB60FB6823F0A9
:1045480080023B685B691343FB607B68FA681A600A
:104558003B689A687B68DA623B681A687B689A628B
:104568007B680A4A934203D07B680C4A934203D182
:104578003B681A697B681A637B6801225A6100BF2D
:104588001437BD465DF8047B704700BF000001404A
:104598000004004000080040000C004000040140F6
:1045A800004001400044014000480140001800401C
:1045B800001C00400020004080B483B000AF786049
:1045C80000BF0C37BD465DF8047B704780B483B0EC
:1045D80000AF786000BF0C37BD465DF8047B7047BC
:1045E80080B483B000AF78607B68DB6803F4005365
:1045F800B3F5005F0CBF01230023DBB218460C376C
:10460800BD465DF8047B704780B483B000AF786026
:1046180039607B681B6923F440523B681A437B6806
:104628001A6100BF0C37BD465DF8047B704780B443
:1046380083B000AF786039607B685B6923F44072AF
:104648003B681A437B685A6100BF0C37BD465DF86A
:10465800047B70472DE9F04F9FB000AF786739674A
:10466800FA66BB66FB6EB3F5004F40F0BC803B6F4B
:104678001C464FF0000522462B4612EB020A43EB7C
:10468800030B52465B46121945EB03034FF000003B
:104698004FF00001D90041EA5271D00002460B46A2
:1046A800111939666B417B66BB6E1A464FF00003E1
:1046B800911839635B417B63D7E90C23D7E918016B
:1046C800FBF7EAFF02460B46A94BA3FB02235B0953
:1046D8009BB21B019EB23B6F1C464FF00005224661
:1046E8002B469118B9625B41FB62D7E90A2312197C
:1046F80045EB03034FF000004FF00001D90041EAF9
:104708005271D00002460B461119B9656B41FB6521
:10471800BB6E1A464FF00003911839625B417B6209
:10472800D7E90823D7E91601FBF7B6FF02460B467F
:104738008F4BA3FB02135B09642101FB03F3D31A1C
:10474800DB0032338A4AA2FB03235B099BB25B007E
:104758009BB203F4F8739BB233449EB23B6F184686
:104768004FF0000102460B469418BC615B41FB61A7
:10477800D7E90623121841EB03034FF000044FF06A
:104788000005DD0045EA5275D40022462B46141870
:104798003C654B417B65BB6E1A464FF00003911890
:1047A80039615B417B61D7E90423D7E91401FBF741
:1047B80073FF02460B466E4BA3FB02135B09642191
:1047C80001FB03F3D31ADB003233694AA2FB03234C
:1047D8005B099BB203F007039BB233449BB21A46B2
:1047E8007B6F9A60BEE03B6F1C464FF00005224687
:1047F8002B4612EB020843EB030942464B461219BB
:1048080045EB03034FF000004FF00001D90041EAE7
:104818005271D00002460B461119B9646B41FB6412
:10482800BB6E18464FF000014FF000024FF0000336
:104838008B0043EA90738200D7E91201FBF72CFF43
:1048480002460B464A4BA3FB02235B099BB21B01A2
:104858009EB23B6F18464FF0000102460B46941873
:10486800BC605B41FB60D7E90223121841EB0303EC
:104878004FF000044FF00005DD0045EA5275D40002
:1048880022462B4614183C644B417B64BB6E184689
:104898004FF000014FF000024FF000038B0043EA95
:1048A80090738200D7E91001FBF7F6FE02460B462B
:1048B8002F4BA3FB02135B09642101FB03F3D31AFB
:1048C8001B0132332A4AA2FB03235B099BB203F084
:1048D800F0039BB233449EB23B6F18464FF0000181
:1048E80002460B4694183C605B417B60D7E9002385
:1048F800121841EB03034FF000044FF00005DD00F0
:1049080045EA5275D40022462B461418BC634B4125
:10491800FB63BB6E18464FF000014FF000024FF0EA
:1049280000038B0043EA90738200D7E90E01FBF77E
:10493800B3FE02460B460E4BA3FB02135B09642130
:1049480001FB03F3D31A1B013233094AA2FB0323E9
:104958005B099BB203F00F039BB233449BB21A4628
:104968007B6F9A6000BF7C37BD46BDE8F08F00BF03
:104978001F85EB5180B588B000AF7860396001239E
:10498800FB770023BB617868FFF72AFE0346002BFC
:104998005ED17B68DB6823F4164323F00C033A6886
:1049A80051683A68D26811433A68126911433A6803
:1049B80092690A431A437B68DA603B689B68194628
:1049C8007868FFF721FE3B685B6919467868FFF74E
:1049D8002EFE07F108031846FEF784F97B681F4A84
:1049E800934202D17B69BB6121E07B681C4A9342F8
:1049F80002D13B69BB611AE07B681A4A934202D133
:104A08003B69BB6113E07B68174A934202D17B691B
:104A1800BB610CE07B68154A934202D13B69BB61DC
:104A280005E07B68124A934201D13B69BB61BB69CF
:104A3800002B0DD03B681B68002B09D00023FB77A7
:104A48003B689A693B681B68B9697868FFF702FE9A
:104A5800FB7F18462037BD4680BD00BF00100140CF
:104A6800004400400048004000140140004C004051
:104A78000050004080B582B000AF78607B68002BA2
:104A880001D1012333E07B6893F83D30DBB2002B82
:104A980006D17B68002283F83C207868FDF7C2FCC9
:104AA8007B68022283F83D20786800F025F87B684F
:104AB8001B681A697B681B6822F480421A617B684C
:104AC8001B685A697B681B6822F02A025A617B6856
:104AD8001B68DA687B681B6842F40052DA607B68FE
:104AE80000221A647B68012283F83D2000231846BF
:104AF8000837BD4680BD00002DE9F04FA5B000AFD6
:104B0800C7F884000023C7F88C30D7F884301B68B6
:104B1800D968D7F884301A6821F00C03D360D7F825
:104B280084301B681B69C7F88C30D7F88C3023F4A5
:104B38007C53C7F88C30D7F884309A69D7F884301A
:104B4800DB691A43D7F884301B6A1A43D7F88430D4
:104B5800DB681A43D7F88C30134343F40063C7F873
:104B68008C30D7F884301A68D7F88C301361D7F8AE
:104B780084301B68DB68C7F88C30D7F88C3023F496
:104B8800164323F00C03C7F88C30D7F884309A68A2
:104B9800D7F884301B691A43D7F884305B691A4305
:104BA800D7F88C30134343F40043C7F88C30D7F858
:104BB80084301A68D7F88C30D360D7F884301B68F3
:104BC8005969D7F884301A6821F440735361D7F8CB
:104BD80084301A68C84B9A4206D0D7F884301A68CD
:104BE800C64B9A4240F0C180FEF776F9C7F88800B4
:104BF800D7F888301C464FF0000522462B469118FE
:104C0800B9655B41FB65D7E91623121945EB030328
:104C18004FF000004FF00001D90041EA5271D00076
:104C280002460B4612EB040A43EB050BD7F8843017
:104C38005B681A464FF00003911839655B417B6544
:104C4800D7E9142350465946FBF726FD02460B4682
:104C5800AB4BA3FB02235B091E01D7F888301C4627
:104C68004FF0000522462B469118B9645B41FB645E
:104C7800D7E91223121945EB03034FF000004FF058
:104C88000001D90041EA5271D00002460B461119C1
:104C9800B9676B41FB67D7F884305B681A464FF0F9
:104CA8000003911839645B417B64D7E91023D7E985
:104CB8001E01FBF7F1FC02460B46914BA3FB0213C6
:104CC8005B09642101FB03F3D31ADB0032338C4AFE
:104CD800A2FB03235B095B0003F4F8731E44D7F8B7
:104CE800883018464FF0000102460B469418BC6302
:104CF8005B41FB63D7E90E23121841EB03034FF026
:104D080000044FF00005DD0045EA5275D400224644
:104D18002B4614183C674B417B67D7F884305B6897
:104D28001A464FF00003911839635B417B63D7E95A
:104D38000C23D7E91C01FBF7AFFC02460B46704B6E
:104D4800A3FB02135B09642101FB03F3D31ADB0005
:104D580032336B4AA2FB03235B0903F00702D7F83F
:104D680084301B6832449A60C0E0FEF7A1F8C7F8A7
:104D78008800D7F888301C464FF0000522462B469D
:104D88009118B9625B41FB62D7E90A23121945EB16
:104D980003034FF000004FF00001D90041EA5271BF
:104DA800D00002460B4612EB040843EB0509D7F87E
:104DB80084305B681A464FF00003911839625B41F2
:104DC8007B62D7E9082340464946FBF765FC024663
:104DD8000B464B4BA3FB02235B091E01D7F8883017
:104DE8001C464FF0000522462B469118B9615B41DD
:104DF800FB61D7E90623121945EB03034FF00000C6
:104E08004FF00001D90041EA5271D00002460B462A
:104E18001119B9666B41FB66D7F884305B681A468E
:104E28004FF00003911839615B417B61D7E9042396
:104E3800D7E91A01FBF730FC02460B46304BA3FBBF
:104E480002135B09642101FB03F3D31ADB0032333D
:104E58002B4AA2FB03235B095B0003F4F8731E448F
:104E6800D7F8883018464FF0000102460B469418D0
:104E7800BC605B41FB60D7E90223121841EB0303D6
:104E88004FF000044FF00005DD0045EA5275D400EC
:104E980022462B4614183C664B417B66D7F8843073
:104EA8005B681A464FF00003911839605B417B60DC
:104EB800D7E90023D7E91801FBF7EEFB02460B46BA
:104EC8000F4BA3FB02135B09642101FB03F3D31A05
:104ED800DB0032330A4AA2FB03235B0903F0070213
:104EE800D7F884301B6832449A6000BF00BF9437FB
:104EF800BD46BDE8F08F00BF00100140001401401E
:104F08001F85EB51F0B58FB00AAF78607B68002B36
:104F180001D101230FE17B681B68BB607B6893F8B4
:104F2800BD33DBB2002B06D17B68002283F8BC239B
:104F38007868FDF7BFFA7B68032283F8BD23BB6856
:104F4800DB6B03F48073002B02D17B6800221A61AB
:104F58007B681B68184600F053F97B681B683B6048
:104F68007E686D4606F110040FCC0FC50FCC0FC537
:104F780094E8030085E80300331D0ECB386800F081
:104F8800DEF80346002B05D07B68022283F8BD2398
:104F98000123D0E07B681B680021184600F041F926
:104FA8000023FB734AE0FA7B79681346DB009B1AFF
:104FB8009B000B443D3301221A70FA7B7968134633
:104FC800DB009B1A9B000B443C33FA7B1A70FA7B7C
:104FD800FB7B98B279681346DB009B1A9B000B4455
:104FE800423302461A80FA7B79681346DB009B1A23
:104FF8009B000B443F3300221A70FA7B79681346F2
:10500800DB009B1A9B000B44443300221A60FA7B96
:1050180079681346DB009B1A9B000B444833002237
:105028001A60FA7B79681346DB009B1A9B000B44D5
:10503800503300221A60FB7B0133FB73FA7B7B68D9
:105048005B689A42AFD30023FB7344E0FA7B79682C
:105058001346DB009B1A9B000B4403F2FD1300224E
:105068001A70FA7B79681346DB009B1A9B000B4485
:1050780003F5FE73FA7B1A70FA7B79681346DB0036
:105088009B1A9B000B4403F2FF1300221A70FA7B51
:1050980079681346DB009B1A9B000B4403F50173E8
:1050A80000221A60FA7B79681346DB009B1A9B0082
:1050B8000B4403F5027300221A60FA7B79681346E1
:1050C800DB009B1A9B000B4403F5047300221A6053
:1050D800FB7B0133FB73FA7B7B685B689A42B5D331
:1050E8007B681B683B607E686D4606F110040FCC38
:1050F8000FC50FCC0FC594E8030085E80300331DE6
:105108000ECB386800F0DAF80346002B05D07B6830
:10511800022283F8BD2301230DE07B68002283F877
:1051280038207B68012283F8BD237B681B681846FA
:1051380000F085FA002318461437BD46F0BD84B048
:1051480080B584B000AF786007F11C0080E80E00DD
:105158003B6B012B22D17B689B6B23F480327B68ED
:105168009A637B68DB6823F4840323F040037A683E
:10517800D3607B68DB6823F440127B68DA60FB6CE1
:10518800012B05D17B68DB6843F480127B68DA6009
:10519800786800F083FA0346FB731AE07B68DB68E3
:1051A80043F040027B68DA60786800F077FA0346DB
:1051B800FB733B6C002B06D17B689B6B43F48032FE
:1051C8007B689A6305E07B689B6B23F480327B687D
:1051D8009A63BB6A012B0BD17B689B6843F006027C
:1051E8007B689A607B689B6843F020027B689A60C2
:1051F800FB7B18461037BD46BDE8804004B07047B9
:1052080080B483B000AF78607B689B6823F00102AC
:105218007B689A60002318460C37BD465DF8047B0E
:10522800704780B584B000AF78600B46FB700023F0
:10523800FB607B68DB6823F0C0427B68DA60FB7840
:10524800012B15D17B68DB6843F000527B68DA607C
:105258000120FBF7EAFEFB680133FB60786800F089
:105268000FFA0346012B1ED0FB68312BF0D91AE048
:10527800FB78002B15D17B68DB6843F080427B68A4
:10528800DA600120FBF7D1FEFB680133FB60786828
:1052980000F0F6F90346002B05D0FB68312BF0D956
:1052A80001E0012305E0FB68322B01D1012300E076
:1052B800002318461037BD4680BD000084B080B575
:1052C80086B000AF786007F1240080E80E00002364
:1052D800FB757B68FB6000233B6109E07A683B69EA
:1052E80040339B00134400225A603B6901333B6101
:1052F8003B690E2BF2D9FB6C002B1CD1FB6803F524
:1053080000635B68FA6802F5006243F002035360C9
:105318007B689B6B43F400127B689A637B689B6B8A
:1053280023F400227B689A637B689B6B23F48022BA
:105338007B689A630BE07B689B6B23F400127B68A5
:105348009A637B689B6B43F400227B689A63FB68D3
:1053580003F560631A4600231360FB6803F50063D6
:105368001946FB6803F500631A460B681360BB6BAC
:10537800012B0CD1FB6A002B04D10021786800F0C6
:1053880045F908E00121786800F040F903E00321BD
:10539800786800F03BF91021786800F0F3F80346CC
:1053A800002B01D00123FB75786800F00FF9034644
:1053B800002B01D00123FB75FB6803F500631A4637
:1053C80000231361FB6803F500631A460023536149
:1053D800FB6803F500631A460023D36100233B6191
:1053E80043E03B695A01FB68134403F510631B68EB
:1053F80003F00043B3F1004F18D13B69002B0AD1E9
:105408003B695A01FB68134403F510631A464FF0D1
:105418000063136013E03B695A01FB68134403F50A
:1054280010631A464FF09043136008E03B695A0135
:10543800FB68134403F510631A46002313603B69A5
:105448005A01FB68134403F510631A4600231361DD
:105458003B695A01FB68134403F510631A464FF67B
:105468007F3393603B6901333B617B6A3A699A42B7
:10547800B7D300233B6143E03B695A01FB681344FF
:1054880003F530631B6803F00043B3F1004F18D1F4
:105498003B69002B0AD13B695A01FB68134403F5A9
:1054A80030631A464FF00063136013E03B695A01FA
:1054B800FB68134403F530631A464FF090431360BA
:1054C80008E03B695A01FB68134403F530631A4648
:1054D800002313603B695A01FB68134403F53063EA
:1054E8001A46002313613B695A01FB68134403F50C
:1054F80030631A464FF67F3393603B6901333B6153
:105508007B6A3A699A42B7D3FB6803F500631B6963
:10551800FA6802F5006223F4807313617B68002245
:105528009A617B686FF080425A613B6B002B05D112
:105538007B689B6943F010027B689A617B689A6973
:105548000F4B13437A689361FB6B002B05D07B6884
:105558009B6943F008027B689A61FB6C012B07D1B9
:105568007B689B6943F0804343F004037A68936146
:10557800FB7D18461837BD46BDE8804004B070472B
:1055880000383C8080B485B000AF78603960002373
:10559800FB603B689B0143F020027B681A61FB6853
:1055A8000133FB60084A934201D9032306E07B6874
:1055B8001B6903F02003202BF1D000231846143771
:1055C800BD465DF8047B7047400D030080B485B08C
:1055D80000AF78600023FB607B6810221A61FB68CB
:1055E8000133FB60084A934201D9032306E07B6834
:1055F8001B6903F01003102BF1D000231846143751
:10560800BD465DF8047B7047400D030080B485B04B
:1056180000AF78600B46FB707B68FB60FB6803F5A6
:1056280000631A68FB78F96801F5006113430B60A1
:10563800002318461437BD465DF8047B704780B4D4
:1056480085B000AF78607B68FB60FB6803F560633A
:105658001B68FA6802F5606223F003031360FB68B5
:1056680003F500635B68FA6802F5006243F0020321
:105678005360002318461437BD465DF8047B704715
:1056880080B483B000AF78607B685B6903F0010386
:1056980018460C37BD465DF8047B704780B485B06A
:1056A80000AF78600023FB60FB680133FB60134A9E
:1056B800934201D903231AE07B681B69002BF3DAB4
:1056C8000023FB607B681B6943F001027B681A6159
:1056D800FB680133FB60094A934201D9032306E0C2
:1056E8007B681B6903F00103012BF1D000231846E6
:1056F8001437BD465DF8047B704700BF400D0300BA
:1057080080B400AF064BD3F88830054A43F47003E1
:10571800C2F8883000BFBD465DF8047B704700BF03
:1057280000ED00E0DFF834D00D480E490E4A0023A2
:1057380002E0D458C4500433C4188C42F9D30B4A3D
:105748000B4C002301E013600432A242FBD3FFF7A5
:10575800D7FF00F011F8FBF7BDF9704700000220F1
:1057680000000020AC0000201C580008B0000020F9
:10577800280A0020FEE7000070B50D4D0D4C641B93
:10578800A4100026A64209D10B4D0C4C00F020F8BD
:10579800641BA4100026A64205D170BD55F8043B31
:1057A80098470136EEE755F8043B98470136F2E78B
:1057B800145800081458000814580008185800080D
:1057C80002440346934200D1704703F8011BF9E7EE
:1057D800F8B500BFF8BC08BC9E467047F8B500BFD6
:0857E800F8BC08BC9E467047A6
:1057F000D8000020000000000000000001020304A7
:0C58000006070809000000000102030474
:08580C00C4AEFF7F01000000A3
:04581400AD010008DA
:0458180089010008FA
:10581C00000000000000F03F00000000000000400D
:10582C00000000000000000002000000000000006A
:10583C00000000000000000000000000000000005C
:10584C000000000000000000000000000000F03F1D
:10585C000000000000000040000000000000F03FCD
:10586C000000000000000000000000000000F03FFD
:10587C000000000000000040000000000000F03FAD
:10588C000000000000000000000000000000F03FDD
:10589C000000000000000040000000000000F03F8D
:1058AC0000000000000000000000010000000000EB
:0C58BC0010000000010000000024F400B7
:040000050800572D6B
:00000001FF
